:020000020000FC
:100000000C94530813C718951895189518951895BA
:100010001895189518951895189518951895189578
:100020001895189518951895189518951895189568
:100030001895189518951895189518951895189558
:100040001895189518951895189518951895189548
:10005000189518950A0D000A0A0D2A2A2A205246D8
:100060004944204475706C696361746F72202A2A58
:100070002A0A0A0D000A0D43616C69627261746993
:100080006F6E206E6F7420666F756E64000A0D527D
:1000900065616420746167202E2E2E20000A0D57A2
:1000A0007269746520746167202E2E2E20000A0D5F
:1000B0004D6964646C65206C6576656C3A20000A55
:1000C0000D57616974207461672072656D6F766584
:1000D000202E2E2E20004F6B004F6B0A0D436F64B5
:1000E000653A20000A0D456D756C61746F72204F82
:1000F0004E20000A0D456D756C61746F72204F467D
:100100004620003B313030303030003A313031362B
:100110003935003931303334343800383130353204
:1001200036330037313037313433003631303930FF
:1001300039310035313131313131003431313332FF
:1001400030380033313135333835003231313736DC
:1001500034370031313230303030003031323234E7
:100160003439002F313235303030002E31323736CD
:100170003630002D313330343335002C31333333C6
:100180003333002B313336333634002A31333935AB
:10019000333500293134323835370028313436339D
:1001A00034310027313530303030000A0D43616C76
:1001B0006962726174696F6E206D6F6465000A0D0B
:1001C000536574206672657175656E6379200020D1
:1001D000487A000600FF0901A101150026FF0075FD
:1001E0000895020900B20201C00403090422036950
:1001F0000070006C006F00670067006500720040CF
:10020000006D00610069006C002E00720075002016
:10021000035200460049004400200044007500706D
:10022000006C0069006300610074006F00720012CE
:1002300001100100000008C016DF050001010200E6
:1002400001090222000101008032090400000103BB
:1002500000000009210101000122160007058103A9
:030260000800642F
:1002640000E801BB09E702BB00E00ABB0EEF0BBBD1
:100274000FE007BB00EF08BB0E94C10501E021D1DC
:1002840007E510E0D0D00E9491030EEA10E0CBD035
:1002940005E413E096D0C1D0009346030F3F39F430
:1002A40005E710E0C0D00FE2B4D000934603B49940
:1002B40002C00E9494030E94B002802F0EEB11E052
:1002C400B2D024E031E0082F10E043E00E947F0820
:1002D400020F131FA8D00FEC11E0A5D00E947103E8
:1002E4000DE810E0A0D017D14ED080E090E0A8E156
:1002F400B3E0A80FB91FFC01E85EFC4F0081FD01CB
:10030400068B038501A350E048E0480F591F83D0B2
:1003140083958B3058F319D00DE910E084D009E3AC
:1003240013E00E948D040FE71FE422E10150104006
:100334002040E1F700C00000F5D089F329D0002364
:1003440071F320D002D06DD0CBCF3CD0EFC000E011
:1003540005BD04EE10E067D016D017D0B49BFECFD5
:10036400D8D0979A10E008E00E940905B499F8CF14
:100374000CD003EF10E057D005D0B49BFECF979874
:100384000C94710300D000E09CC008EC10E0D8C0CD
:1003940000E003C003950B3040F409D0268907D050
:1003A40010812117B9F300E0089501E00895E02FCA
:1003B400F0E0E85EFC4F08952196E4E00C948E088A
:1003C4008E0132C00E948708219709ED10E02BD0DE
:1003D400A8E1B3E085E00D910295007F08830D91BB
:1003E4001881102B1883ECDF8A95A9F750E041E0BF
:1003F4000E946F080A9550E041E00DD0002341F4BB
:100404000CD0000F088305D00AE0C0DF0E94001F53
:10041400D3CF40E050E00C947B0840E050E00C94D3
:100424006F0804E510E03DC0BA93AA932197D80160
:100434000C91029506D00C9104D02196A991B99102
:1004440008950F7008830A3010F0095C01C0005D44
:1004540008838E0100C0BA93AA93D80100914B037C
:100464000023F1F00C91009349030091440300939D
:100474004A0301E0009350034CD0009147031C91C0
:100484000117D1F700914803109144030117A1F714
:1004940000E000935003E4E4F3E00081039500835B
:1004A400CDCF9A938A932197C80101C0D2DFFC0172
:1004B4000591CF0108830023C9F721968991999169
:1004C40008950E948808A02FF894C09AC19A21D058
:1004D400AA2319F488EC90E002C088EE93E0C19856
:1004E40010D0C19A0ED00197D1F7C098C1987894D2
:1004F400C2984BDFA13009F448DFC29AE3E00C94C0
:100504008F080DEE12E001501040E9F700C0000022
:1005140008950C94C506B49B1ADF04D0E1F302D00D
:10052400D1F308950E944C03002308950FEB10E0CB
:100534007ADFF8DFF1F7F6DFE1F706ED10E073CFCD
:100544009A938A93C801E5DF07EB1BE00150104042
:10055400E9F700C000000197B1F7B0CF40E050E0E8
:100564000E946F08302F20E0022F0FD1F801ED5FB9
:10057400FE4F0491031719F023952531A8F3022F98
:10058400089586D0A8E1B1E014D180E820D10D937C
:1005940010D10D938A95D1F778C07AD090E0A8E174
:1005A400B1E080E0F0D00D91901708F4902F8A9577
:1005B400C9F7092F6AC01B2E2A2E9801E8E1F1E041
:1005C40040E00191D9011C910117B0F040FB16F4F1
:1005D4006FEF01C060E06093180209E112E051E09E
:1005E4007191D9010C90701558F47191701560F4E3
:1005F4000FD04A9539F408C04A9519F700E005C0B0
:10060400609506D04A9561F7052FA22DB12D089566
:10061400D8016D938D01539508953AD0802FA8E1A8
:10062400B2E093E001E01D91112339F01C911123F4
:1006340021F00395093011F403C001E08A9599F77C
:1006440011968A95873300F100E0875307D1108310
:1006540015E02081220F20832D91222319F020817F
:10066400216020831A95A9F72081F0E0E02FED5D49
:10067400FC4F208303950B3048F3BCD0002311F0CA
:1006840001E003C09A9571F600E0E4E00C948E0852
:100694000C9487088A9321970BE03FD074D071DFC4
:1006A4007CDF802F069506950883801B6CD08E0115
:1006B40082DF013828F0B1DF002311F001E006C029
:1006C400088103950883801788F700E021968991B3
:1006D400089510E013BF0CBF0AE003BF089500E0C3
:1006E40005BD02BD0091460303BD09E105BD02E35A
:1006F40010E00C94A202CCDF0FEB0FD0A0E0B0E02E
:1007040080E862D010E0A00FB11F8A95D1F7AA0F3C
:10071400AB2FAA1FA0934503B8CFDBDF66C002E36B
:10072400E7DFE9CF9A938A9336D035D034D00BEAF9
:1007340011E027D007C027D0B499FDCF2AD08A95DD
:10074400873208F48BE380934603C9DF40E050E02E
:10075400082F0E947B081FD001DF902F0EEB11E0C1
:1007640010D024E031E0092F10D0020F131F09D05C
:100774000FEC11E006D001C006D0B49BFDCF09D028
:10078400DBCF0C9453020C94C50610E043E00C94A8
:100794007F0804E6ADCF00E00C94630208B7026062
:1007A40008BF08B701FFFDCF349A369A3699FECFB9
:1007B400089515D009D0091718F083958038D0F31F
:1007C400082F899199910895E9DF05B1089507D01B
:1007D400FBDF901718F083958038D0F3F1CF9A930C
:1007E4008A939091450380E0089500E607B902E9F1
:1007F40006B9D4CF30E000E031D04081342720E086
:1008040010E1542F512309F0239516951230C8F79F
:10081400122F1170242F21701217F1F44695408382
:1008240003950A3048F31AD0008100FD15C00695DF
:1008340000833695301781F400E0F0E0E02FE85EA5
:10084400FC4F2081222309F4139503950A30A8F361
:100854001A3011F001E0089500E0089510E0E8E195
:10086400F3E0E00FF11F08958F980DED13E00150B0
:100874001040E9F700C000008F9A08958F9803E9AB
:1008840012E001501040E9F700C00000F5CF00234A
:1008940041F005E514E001501040E9F700C0000004
:1008A40007C006E711E001501040E9F700C000005E
:1008B400E5CF0E9485082801CA01DB0164DF28D046
:1008C400042D25D000E023D000E2402EB7FB16F41F
:1008D40001E001C000E01BD0880F991FAA1FBB1FB5
:1008E4004A94A1F752FA16F401E001C000E00FD0D7
:1008F40051FA16F401E001C000E009D050FA16F4F0
:1009040001E001C000E003D0E6E00C948C08BFCF06
:10091400ABDF01E0FCCFBA93AA932497D80140E45B
:1009240050E864E170E610E05BD011961C912E91C2
:10093400220F012F02950F70202B206C2B83129510
:10094400107F12960C9112960695102B1A830C9117
:1009540012971D9110FB20E027F91C911296110F9C
:10096400110F212B102F169516951695212B2983DF
:100974000295007F000F1C911296012B2BD011E0E1
:100984002FD02C911E911396110F110F110F022FBE
:1009940006950695102B1B831C9100E4209F0E9155
:1009A4001296000F002A012F02950F70002A0A8266
:1009B4001295107F0C910695102B19830C9100FB56
:1009C40000E007F90F6706D012E00AD02496A99137
:1009D400B99108950883488159816A817B8108957A
:1009E40000E067DF04D08F9806E082DE8F9A0BE088
:1009F4007FCE04D0979A03C0979A01D097980FEFAF
:100A040012E001501040E9F700C0000008950E9470
:100A14008508C801A8E0B9E0ECDFBA95E9F7B0E0D1
:100A240010E0AC014B0F511F0E946F08502E05E0DF
:100A3400402E54FA16F4DDDF01C0DEDF550C4A9473
:100A4400C1F7B395BB3060F3AA9529F75DCF5B2F4F
:100A54002A2E56D03185332311F40FEF20C0308570
:100A6400321708F42085378140E010C0042E112489
:100A7400678170E0060E111CDF01A00DB11D1296F6
:100A84003C91D801A40FB71F3C934395421770F3D0
:100A94000781020F07830085021B0087022FA22D06
:100AA400B52F08957B2F2A2E322F2AD02681222378
:100AB40011F401E022C02681231708F4368120E0D6
:100AC4000FC050E0D801A20FB51F6C91022E112463
:100AD4004581040E151EDF01A00DB11D6C932395F5
:100AE400231778F30581030F05830681031B06830F
:100AF400068106810023E9F200E0A22DB72F0895B4
:100B0400E7E4F3E00895F80120812076203291F49F
:100B14000181013031F4F4DF02E0008700E0078353
:100B240007C0093039F4ECDF02E0068300E00583F6
:100B34000FEF089500E008958A93C29A04E20093A7
:100B4400490301E00093500384E602C08A9591F0C2
:100B54000E94C5060FE719EA23E001501040204027
:100B6400E1F700C0000000914703043279F701E087
:100B740000934B0300E00093500389910895F89487
:100B84000E94F006899A0CE211E00E94A202789475
:100B94008998D2CFF80100E01381113021F402E1E9
:100BA4002FE232E026C0123021F402E221E432E0E6
:100BB40020C0133099F41281112321F404E029EEAA
:100BC40031E017C0113021F402E22DEE31E011C002
:100BD400123081F400E22FE032E00BC0113221F434
:100BE40009E023E532E005C0123221F406E123EDE9
:100BF40031E032D010E4109301010895F80110E0BF
:100C040029EE30E062811093E9000181002321F490
:100C14001093EA0012E01DC0053019F46093FB0044
:100C240018C0063021F48F01B5DF102F13C008302F
:100C340021F42CEF30E011E00CC0093019F460937A
:100C4400FC0007C00A30B9F30B3019F40BE400932D
:100C5400EC0002D0012F0895E0EEF0E0278B308FF6
:100C64000895BA93AA93D8010091FE000D3239F584
:100C74002830B9F503EC0093E0000AE50093FF0087
:100C840000E0009301010C9100760A2F19F00E94F4
:100C9400850501C0B3DF0F3F49F41C9117FF02C063
:100CA400FD01068110E81093010119C0FD011781AF
:100CB4001123A9F41681101790F4012F10C000918C
:100CC400010107FF0EC00A2F0E9454050F3F21F4B3
:100CD4000EE10093FF0005C0002319F000E000932B
:100CE4000001A991B9910895BA93AA932223E1F03E
:100CF4003091010137FF04C00E942905202F14C040
:100D0400322FA7EFB0E0ED91FC914091010146FF35
:100D140004C045910BD0E9F703C0419107D0E9F72E
:100D2400A7EFB0E0ED93FC93022FDBCFD8014D93F6
:100D34008D013A9508950E948708A0E0B1E02091C2
:100D44000001293008F028E00C91021B0C939097C5
:100D540008E81C9110271D9301EE10E0C5DF802FD9
:100D6400093040F4202F8D010E9412078C5F8C30D3
:100D740028F401C08EE10FEF009300018093FF007F
:100D8400E4E00C948E08BA93AA93A0EEB0E020910C
:100D9400FD00235072F04091F90050E0419550401D
:100DA4008D01040F151F025D1F4F5BDF00E00093F0
:100DB400FD005F960C9104FF05C0009100010F3FF8
:100DC40009F0B9DF04E110B3167039F40A95D9F7C4
:100DD40000E00093FB000093FA0083CF05B70360A3
:100DE40005BF0BB700640BBF0BE40093EC000AE5EE
:100DF4000093EB000895E02FF12F00E010E041E0B4
:100E040050EA209530E009C06191062717950795AF
:100E140010F004271527305EC8F32F5FA8F3089558
:100E2400EADF019311930895CF93CFB7CF93C3957E
:100E3400819BE9F7819B09C0819B07C0819B05C009
:100E4400819B03C0819B01C0A3C0DF93C091F900C3
:100E5400DD27CE5FDE4F819B02C0DF91EBCF2F9366
:100E64000F931F9300B32FEF01FB20F94F933F9390
:100E740010B34FEF012701FB21F93BE031C04E7F56
:100E8400012F10B3216028C0102F4D7F2260000075
:100E940000B329C04B7F2460012F000010B32BC086
:100EA40010B3477F28602AC04F7E00B320612CC056
:100EB4004F7D10B320622FC04F7B00B3206432C03B
:100EC400422700B349934FEF0000102711FB20F98C
:100ED40010B31670C9F1297F91F2012701FB21F9A2
:100EE40000B3237F89F2315058F1102711FB22F906
:100EF40010B3277E79F2012701FB23F92F7C81F2BD
:100F040000B3102711FB24F92F7971F200C010B33C
:100F1400012701FB25F92F7359F200C000B31027F4
:100F240011FB26F9223040F200C010B3012701FB67
:100F340027F9243028F64F77206810B30000F9CF42
:100F440010E41ABF002719C03B503195C31BD04091
:100F540010E41ABF0881033CF9F00B34E9F0209146
:100F6400FA001981110F1213EDCF4A81441F09367B
:100F740041F10D3211F0013E29F7009351033F91E5
:100F84004F911F910F912F91DF91CAB7C6FD4FCF9B
:100F9400CF91CFBFCF91189520915103222379F39C
:100FA4001091FD00112369F534306AF13093FD008E
:100FB4002093FE001091F9003BE0311B3093F900BF
:100FC40022C00091FD000130E4F40AE54F7049F4B9
:100FD4003091FF0034FD19C00093FF00C0EED0E053
:100FE40018C03091EB0034FD10C00093EB00CCEE40
:100FF400D0E00FC02795A8F45150A9F4220F0000A7
:10100400F9CF4AE503C042ED01C0432FC4E1D0E06B
:1010140032E011B31660919A11BB02B320E416E0DA
:101024005F93012756E002BB279520F4515021F429
:10103400220FF9CF012756E000003B5A02BBD0F241
:10104400279528F4515029F4220F0000F9CF0127E5
:1010540056E0279502BB20F4515021F4220FF9CF1A
:10106400012756E02991332302BB21F6097F109111
:10107400FB00110FC651D04002BB11F01093FA00CF
:1010840010E41ABF026011B3197F402F497F5F91AA
:1010940000C000C002BB11BB42BB71CF00008895E9
:1010A400FECF0FED0DBF00E00EBFC0EAD0E00E94FE
:1010B4009708002311F00E94A7080E9432010E94A1
:1010C40050080C945008E199FECF08954F5F5F4F8C
:1010D400FADF4EBB5FBBE09A0895FADF0DB30895C3
:1010E4004F5F5F4F4EBB5FBBF894E29AE19A0FBE2D
:1010F40008950FB6E8DF0DBBF5CF4A951AF0000F3F
:10110400111FFBCF08955A924A92BA93AA939A93C5
:101114008A9308955D804C80BB81AA8199818881DE
:10112400F0E0EC0FFD1FEF01089501E0089520E0C9
:1011340006D0E9F70895259102D0E9F708952D9393
:1011440001501040202F212B089582E891E1FC01E9
:1011540005911491FC013296A591B491FC01349649
:1011640025913491422F432B19F0F901E4DF01C09A
:10117400DEDF069611E18E38910748F308953A02AE
:10118400180100003800E0008E110000000000008B
:10119400000000000000000000000000000000004B
:1011A4000000000000000000005AFF0000000000E2
:1011B400000000000000000000000000000000002B
:0211C400000029
:103E00000E948708BFB7F8942497A89507B7102F8A
:103E100010FDFCCF41E050E000E010E020E030E099
:103E200011D000E810E0C801AC019E0100E81FD0ED
:103E300080589F4FAA95AA23B9F72496BFBFE4E004
:103E40000C948E08000F111F63E0F80167BFE8951E
:103E500067B760FDFDCF71E1002477BFE89500589A
:103E60001F4F41505040642F652B71F708950E94F9
:103E70008708602FD90139D0000F111F221F331F6F
:103E80002FD013971801FA0181919191AF0171E040
:103E90000D911D911297F8010C0177BFE895FD0176
:103EA00000811181228133810E5F1F4F2F4F3F4FC1
:103EB0000083118322833383625029F705E0F101E7
:103EC00007BFE89507B700FDFDCF11E1002417BF3C
:103ED000E8950BD0359527951795079501D0AFCF6D
:103EE0000D931D932D933C9308950D911D912D914C
:063EF0003C9113970895B8
:0400000300000000F9
:00000001FF
